:020000040800F2
:10000000A80500200101000899250008E115000855
:10001000952500083D0D0008433C00080000000045
:10002000000000000000000000000000ED330008A8
:10003000A1120008000000009B2C0008A137000856
:100040001B0100081B0100081B0100081B01000820
:100050001B0100081B0100081B0100081B01000810
:100060001B0100081B0100081B0100081B01000800
:100070001B0100081B0100081B0100081B010008F0
:100080001B0100081B0100081B0100081B010008E0
:100090001B0100081B0100081B0100081B010008D0
:1000A0001B0100081B0100081B0100081B010008C0
:1000B000553800081B0100081B0100081B0100083F
:1000C0001B0100081B0100081B0100081B010008A0
:1000D0001B010008113A0008953A00081B010008AE
:1000E0001B0100081B0100081B010008DFF80CD0F1
:1000F00000F028FC00480047754C0008A8050020C7
:100100000648804706480047FEE7FEE7FEE7FEE7B1
:10011000FEE7FEE7FEE7FEE7FEE7FEE7A53700089D
:10012000ED000008F0B480EA0102D40F4200B2EB07
:10013000410F02D20246084611464A0042D0C30D82
:10014000DDB2C1F3C752AD1A202D35DAC1F3160165
:1001500041F4000204B15242C5F1200602FA06F150
:100160002A411044B3EBD05F23D0C4B1012DA0EBE2
:10017000C35009DCF0BC4FF0004202EAC352DBB2CC
:1001800000F5000000F013BA400000F1807000EBB1
:10019000C350A0F1807040EAD170490009E04908DD
:1001A00041EAC071A0EBC35000F50000400800EB2D
:1001B000C350F0BC00F0F2B96142012202EB4101F0
:1001C000001BF6E7F0BC704781F00041AAE780F021
:1001D0000040A7E780EA010210B502F000434000AA
:1001E00022D04A001FD0010E01EB1261C0F356006D
:1001F000C2F3560240F4000042F40002A0FB0220C9
:1002000000047F39140400D0401C50EA124001D48D
:100210004000491EC2B20C0604EBD010401C40083E
:10022000802A02D003E0002010BD20F00100002948
:1002300000DA0020184310BD30B480EA010202F059
:10024000004530F0004221F0004013D090B1C30DC2
:10025000D40DC2F31601C0F31600E41A41F40001F4
:1002600040F400027D34914201D3641C00E0490057
:10027000002C02DA30BC002070474FF4000000234D
:10028000914201D3891A034340084FEA4101F7D153
:1002900051B1914202D14FF0004105E002D24FF03E
:1002A000010101E06FF0010103EBC450284430BCB0
:1002B00000F074B92DE9FE4F81EA030404F0004414
:1002C00021F0004100944FF0000B23F0004350EA6E
:1002D00001045ED052EA03045BD0C3F30A54C1F3B5
:1002E0000A552C44A4F2F3340194A0FB0254C1F348
:1002F000130141F48011C3F3130343F4801301FB92
:10030000024400FB034E840A970A44EA815447EAF8
:100310008357A4FB076802958D0A05FB07854FEA02
:10032000932C04FB0C542705029D4FEA065847EA1C
:100330001637B5EB08056EEB070C870E920E47EAF1
:10034000811742EA8312A7FB0201B6EB0B0164EBB3
:1003500000042B0D43EA0C335E1844EB1C50DA46C4
:100360005146E7FB0201C5F313044FEA0B3343EA9E
:1003700014534FEA0432019C43EA0603A4F10C042F
:100380000294009CCDE900B400F04EF903B0BDE842
:10039000F08F00200146F9E72DE9F04D81EA0304D2
:1003A00004F0004B21F0004514464FF0000A23F002
:1003B000004150EA050220D054EA01021DD0C5F3E5
:1003C0000A570246C5F31303C1F31300C1F30A56DB
:1003D00040F4801543F48013A7EB0608101BD646A3
:1003E00008F2FD3873EB050002D308F1010801E0C3
:1003F00092185B41B8F1000F03DA00200146BDE816
:10040000F08D00204FF48011064684460EE0171B45
:1004100073EB050705D3121B63EB050306434CEA98
:10042000010C49084FEA300092185B4150EA01077D
:10043000EDD152EA030012D082EA040083EA0501FA
:10044000084305D0101BAB4106D20122002306E071
:1004500000224FF0004302E06FF0010253101AEB4C
:1004600006004CEB085110EB0A0041EB0B01BDE814
:10047000F04D00F0CAB8C10F80EAE0700844CA0726
:100480009623002100F093B820F00040C10DC0F386
:10049000160040F400007F2901DA002070479629F9
:1004A00003DCC1F19601C840704796398840704717
:1004B00000F0004230F000400AD0C10D01F560713B
:1004C000C0F3160042EA0151C208400711437047C9
:1004D00000200146704701F0004330B421F0004194
:1004E00050EA010206D00A0DA2F56072C1F31301B1
:1004F000002A02DC30BC00207047440F44EAC104EB
:10050000C100E01830BC00EBC25000F047B830B575
:100510000B46014600202022012409E021FA02F5C1
:100520009D4205D303FA02F5491B04FA02F528445B
:10053000151EA2F10102F1DC30BD2DE9F05F054688
:10054000002092469B4688460646814640241BE092
:10055000284641464746224600F015FA53465A4679
:10056000C01A914110D311461846224600F0FCF9FA
:100570002D1A67EB01084F4622460120002100F0AA
:10058000F3F917EB00094E41201EA4F10104DFDC52
:10059000484631462A464346BDE8F09F0029A8BF99
:1005A0007047401C490008BF20F00100704710B49C
:1005B000B0FA80FC00FA0CF050EA010404BF10BC51
:1005C000704749B1CCF1200421FA04F411FA0CF17E
:1005D00018BF012121430843A3EB0C01CB1D4FEAB7
:1005E00000614FEA102042BF002010BC704700EBB2
:1005F000C35010440029A4BF10BC7047401C4900E0
:1006000008BF20F0010010BC704710B5141E73F134
:10061000000408DA401C41F1000192185B411A43C2
:1006200001D120F0010010BD2DE9F04D92469B460E
:1006300011B1B1FA81F202E0B0FA80F220329046B4
:1006400000F092F904460F4640EA0A0041EA0B0125
:1006500053465A46084313D0114653EA010019D0B5
:10066000C8F14002504600F08EF905460E4650464D
:100670005946424600F078F9084305D0012004E0CD
:1006800020463946BDE8F08D0020054346EAE07675
:100690002C4337430A986305E40AA0EB08000022C4
:1006A000FD0A44EA47540A3002D500200146E9E732
:1006B000010510196941DDE9084500196941BDE8E6
:1006C000F04DA2E72DE9FE4F804681EA0300C00FFE
:1006D0000C46009021F0004123F00045B8EB0200E9
:1006E000A94105D24046214690461C460B4602468B
:1006F00023F00040104347D0270DC7F30A00C3F38F
:100700000A510290401A019040286BDAC3F313009B
:1007100040F4801B0098924620B10023D2EB030ADC
:1007200063EB0B0B01985946C0F14002504600F0B4
:100730001BF906460D4650465946019A00F033F91A
:1007400010EB08006141002487EA115284EAE77344
:100750001A4340D0009A62B3019A012A4FEA075225
:1007600015DC001B61EB02014FF0004202EA075268
:10077000CDE90042001C41F5801132462B46FFF7BF
:1007800053FF03B0BDE8F08F40462146F9E7001B58
:1007900061EB0201001C41F5801300185B41201839
:1007A000A2F5001747EB030140EAD570B6196D4179
:1007B00011E06D084FEA360645EAC0754FEA075268
:1007C000001B61EB0201001C41F5801149084FEA52
:1007D00030000019514132462B4603B0BDE8F04FBE
:1007E000FFF713BF0098012240000023D0EB020264
:1007F00063EBE073009821464FEAE074B8EB000029
:1008000061EB0401E9E783F000435BE781F000411D
:1008100058E770B521F0004303430CD0C1F30A55EB
:100820000024D5EB040564EB0403D617AD1AB341DD
:1008300002DB0020014670BD201841EB025170BD63
:100840002DE9F04D00231A461B1A8A4103DB0020D4
:100850000146BDE8F08DC1F30A52C1F3130141F422
:1008600080154FF0000BD10702D100186D41521EC8
:100870000027044640F2FF11384601EB620A3E466B
:100880008046024600204FF4801100F07CF8C21927
:100890007141BB1846EB0100B4EB030C75EB000C87
:1008A00004D3E41A65EB000517460E46241908F137
:1008B00001006D4180463428E3DDF91946EB06005E
:1008C000091BA84103D24FF0FF32134601E000227A
:1008D00013461BEB070046EB0A51BDE8F04DFFF74E
:1008E00094BEC1F30A52C1F3130140F2FF3341F445
:1008F00080119A4202DA00200146704740F23343E9
:100900009A42A2F2334202DC524200F03CB800F0BC
:100910002BB8000030B5041E71F1000404DB4FF069
:100920000044404264EB0101141E73F1000405DB36
:100930001C464FF00043524263EB0403994208BF48
:10094000904230BD064C074D06E0E06840F00103E0
:1009500094E8070098471034AC42F6D3FFF7CAFB7F
:10096000305B0008505B0008202A04DB203A00FAC4
:1009700002F1002070479140C2F1200320FA03F3F6
:10098000194390407047202A04DB203A21FA02F0F4
:100990000021704721FA02F3D040C2F120029140B9
:1009A000084319467047202A06DBCB17203A41FA44
:1009B00002F043EAE07306E041FA02F3D040C2F1EC
:1009C0002002914008431946704721B1826842F0E5
:1009D0000102826003E0826822F0010282607047B7
:1009E00021B1826842F48072826003E0826822F45E
:1009F000807282607047014600208A6802F004021B
:100A00000AB1012000E000207047014600208A68FA
:100A100002F008020AB1012000E000207047000047
:100A200030B502460020002350680F4C20400D795D
:100A30000C6844EA05242043506090680B4C204029
:100A4000D1E902542C434D7944EA45042043906097
:100A5000D06A20F470000C7C641EE4B2234340EAA8
:100A60000350D06230BD0000FFFEF0FFFDF7F1FF44
:100A7000F0B504460D4600200021092D11DDE06887
:100A8000A5F10A0606EB4607072606FA07F1884392
:100A9000A5F10A0606EB460603FA06F10843E060F4
:100AA0000CE0206905EB4507072606FA07F18843A5
:100AB00005EB450603FA06F108432061072A0FDA21
:100AC000606B561E06EB86071F2606FA07F1884361
:100AD000561E06EB860605FA06F10843606322E01F
:100AE0000D2A0FDA206BD61F06EB86071F2606FAA3
:100AF00007F18843D61F06EB860605FA06F1084380
:100B0000206310E0E06AA2F10D0606EB86071F26BF
:100B100006FA07F18843A2F10D0606EB860605FAF0
:100B200006F10843E062F0BD816841F00801816090
:100B30007047816841F004018160704710B586B04C
:100B400004460121052002F0D5F80121480402F0F5
:100B5000C1F818208DF8170003208DF81600042026
:100B6000ADF8140005A9184800F00AFC04208DF81F
:100B700017000820ADF8140005A9134800F000FC88
:100B800001940020ADF810000C20ADF80E000020FC
:100B9000ADF80C00ADF80A00ADF8080001A90B484B
:100BA00002F0DAFF022326220121184601F084FE1A
:100BB0000121064802F091FF012240F2255103482D
:100BC00002F0A4FF06B010BD000801400044004040
:100BD00070B5642542222821084601F0E1FE4E222C
:100BE0002821382001F0DCFE01F0FCFD2D4803F047
:100BF0001FF82D49087008460078642190FBF1F039
:100C00002A49487028480078642190FBF1F201FBE2
:100C100012000A2190FBF1F02449887022480078E4
:100C20000A2190FBF1F201FB12002049C870012457
:100C30001EE01E48005D1E49085C1C490855084618
:100C4000025D302000EBC400C1B2282001F0A8FEF4
:100C50001648025D302000EBC400C1B2382001F01C
:100C60009FFE1248015D13A002F0EEFF601CC4B2AB
:100C7000042CDEDB10A002F0E7FF0CE00B4801F0D3
:100C80007DFD202804D00025012001F08FFA02E02C
:100C9000002001F08BFA281EA5F10101CDB2EDD1A3
:100CA00070BD000000440040970000209800002024
:100CB0007C000020256420000D0A000010B52021D2
:100CC000064802F016FF38B12021044802F0FCFE6D
:100CD000024802F0ADFF0446204610BD004400402B
:100CE00010B504468021064802F003FF38B1802188
:100CF000034802F0E9FE2146014802F09EFF10BDC4
:100D00000044004008B50121042001F0F3FF102049
:100D10008DF8030003208DF802004FF48050ADF8E9
:100D200000006946034800F02BFB002002490860E0
:100D300008BD000000080140B001214200BFFEE7ED
:100D400000B591B04FF4004001F0A8FF012140F23E
:100D50000D2001F0CFFF0121084601F0ABFF00207C
:100D60008DF843000320ADF8400010A93B4800F087
:100D700007FB00208DF843000320ADF8400010A9C8
:100D8000374800F0FDFA00200B9001208DF830006C
:100D90008DF831004FF460200D9000200E9004205B
:100DA0008DF83C000BA92F48FFF73AFE07230122DC
:100DB00000212C48FFF75CFE07230222012129486D
:100DC000FFF756FE0723032208212648FFF750FEAF
:100DD0000723042209212348FFF74AFE21484C300B
:100DE00000902148019000200290042003900020F0
:100DF00004908020059040000690800007902020FD
:100E000008900002099000200A906946174800F0F7
:100E1000BFF901211348FFF7D8FD0121134800F065
:100E2000ABF901210F48FFF7DBFD01210D48FFF76A
:100E3000CCFD0C48FFF778FE00BF0A48FFF7E5FD40
:100E40000028FAD10748FFF774FE00BF0548FFF7F6
:100E5000D2FD0028FAD111B000BD0000000C014005
:100E600000080140002401407400002008000240F6
:100E700010B5BD480078C00960B9BC4800780328A7
:100E800008D1B948007820F080008030B649087059
:100E900001F06AFDB44800780121B1EBD01F09D1FF
:100EA000B24800780D2805D1AF48007820F08000C6
:100EB000AD490870AC4800780121B1EBD01F31D1A9
:100EC000AA48007802282DD1A9480078401CC0B259
:100ED000A7490870072820D2DFE800F01F04080C9B
:100EE000101418000120A34908701AE00220A1493B
:100EF000087016E004209F49087012E008209D4900
:100F000008700EE010209B4908700AE00020984904
:100F1000087020209749087003E0FF209549087069
:100F200000BF00BF9348007801282BD18F4800787C
:100F3000012827D18C48007820F080008A49087069
:100F400001F012FD8848007820F00100401C86491D
:100F500008700846007820F0020008700846007803
:100F600020F0040008700846007820F0080008709F
:100F70000846007820F0100008700846007820F03D
:100F8000200008707B48007802282BD17748007831
:100F9000012827D17448007820F080007249087039
:100FA00001F0E2FC7048007820F001006E49087002
:100FB0000846007820F00200801C0870084600787F
:100FC00020F0040008700846007820F0080008703F
:100FD0000846007820F0100008700846007820F0DD
:100FE000200008706348007804282BD15F480078FF
:100FF000012827D15C48007820F080005A49087009
:1010000001F0B2FC5848007820F001005649087001
:101010000846007820F0020008700846007820F0AA
:101020000400001D08700846007820F008000870D1
:101030000846007820F0100008700846007820F07C
:10104000200008704B48007808282BD147480078CA
:10105000012827D14448007820F0800042490870D8
:1010600001F082FC4048007820F001003E49087001
:101070000846007820F0020008700846007820F04A
:10108000040008700846007820F008000830087056
:101090000846007820F0100008700846007820F01C
:1010A000200008703348007810282BD12F48007892
:1010B000012827D12C48007820F080002A490870A8
:1010C00001F052FC2848007820F001002649087001
:1010D0000846007820F0020008700846007820F0EA
:1010E000040008700846007820F0080008700846E0
:1010F000007820F01000103008700846007820F0CA
:10110000200008701B48007820282BD11748007851
:10111000012827D11448007820F080001249087077
:1011200001F022FC1048007820F001000E49087000
:101130000846007820F0020008700846007820F089
:10114000040008700846007820F00800087008467F
:10115000007820F0100008700846007820F0200089
:101160002030087010BD000086000020870000209D
:10117000890000208800002021B1026842F00102AD
:10118000026004E002684FF6FE731A400260704786
:1011900010B50022026847F6F0739A430C6A8B6818
:1011A00023430C6923434C6923438C692343CC6953
:1011B00023434C6A23438C6A23431A430260CB685F
:1011C00043600B6883604B68C36010BD2DE9F04736
:1011D000432000F0ADFA0546FFF74DF904464FF005
:1011E0008C41FFF729F82B49C861452000F0A0FA8F
:1011F0000546FFF740F904464FF08C41FFF71CF815
:1012000024490862472000F093FA0546FFF733F9B6
:1012100004464FF08C41FFF70FF81E4948623B200F
:1012200000F086FA8146FFF726F90446FFF740F9F9
:101230000746194A194BFFF7AFF80546FFF74BF978
:10124000144908613D2000F073FA8146FFF713F955
:101250000446FFF72DF907460F4A104BFFF79CF89D
:101260000546FFF738F90B4948613F2000F060FA66
:101270008146FFF700F90446FFF71AF90746064AC8
:10128000064BFFF789F80546FFF725F90149886104
:10129000BDE8F08714000020FCA9F1D24D62304077
:1012A0007047000010B56FF0040002F065FA0A48BC
:1012B00000680A49B0FBF1F0094908700846007857
:1012C00000EB4001C1EBC0104FF6FF7101EAC00016
:1012D0000449088010BD00000000002000127A00C0
:1012E0009E0000209C0000200146114A12884A43BB
:1012F0004FF0E0235A6100229A611A46126942F0C7
:1013000001021A6100BF4FF0E022106900F00102F3
:101310001AB100F48032002AF5D04FF0E0221269B1
:1013200022F001024FF0E0231A6100229A61704717
:101330009C0000200146114A12784A434FF0E023F6
:101340005A6100229A611A46126942F001021A613A
:1013500000BF4FF0E022106900F001021AB100F462
:101360008032002AF5D04FF0E022126922F001020B
:101370004FF0E0231A6100229A6170479E0000201E
:101380002DE9F0410246002500260020002300241C
:10139000002791F803C00CF00F0591F803C00CF082
:1013A000100CBCF1000F03D091F802C04CEA050507
:1013B00091F800C0BCF1000F31D0146800202BE080
:1013C0004FF0010C0CFA00F3B1F800C00CEA030670
:1013D0009E4220D183004FF00F0C0CFA03F7BC4360
:1013E00005FA03FC4CEA040491F803C0BCF1280F91
:1013F00006D14FF0010C0CFA00FCC2F814C00AE050
:1014000091F803C0BCF1480F05D14FF0010C0CFA64
:1014100000FCC2F810C0401C0828D1D31460B1F8F9
:1014200000C0BCF1FF0F34DD546800202EE000F155
:10143000080C4FF0010808FA0CF3B1F800C00CEAF0
:1014400003069E4221D183004FF00F0C0CFA03F7E4
:10145000BC4305FA03FC4CEA040491F803C0BCF158
:10146000280F05D100F1080C08FA0CF8C2F8148016
:1014700091F803C0BCF1480F07D100F1080C4FF000
:10148000010808FA0CF8C2F81080401C0828CED3D6
:101490005460BDE8F0810000F0B50A460023002446
:1014A0000021002500F00046B6F1004F02D11D4E8C
:1014B000F16901E01B4E7168C0F3034583B200F48B
:1014C0004016B6F5401F08D121F07061154E7668C0
:1014D00026F07066134F7E6012E000F48016B6F5B9
:1014E000801F06D1032606FA05F4A14341F070617E
:1014F00006E0460D360103FA06F6B14341F070618D
:1015000022B1460D360103FA06F6314300F00046DB
:10151000B6F1004F02D1034EF16101E0014E71605E
:10152000F0BD0000000001400246002093680B401F
:101530000BB1012000E00020704702460020D36874
:101540000B400BB1012000E0002070474161704763
:101550000161704710B500F09DFD04467CB11D4847
:10156000007884420BD11C48007818B901201A4930
:10157000087004E019480078401C184908701648A3
:101580000078012822D10CBB0020134908701348B1
:101590000078022809DD11480078192805DA0020B2
:1015A0000E4908700B48007810BD0C4800781928C7
:1015B00007DB002009490870064800780A30C0B2ED
:1015C000F2E70020054908701420EDE70148047097
:1015D0000020E9E76B0000206A000020690000207D
:1015E00000BFFEE710B501F0FDFC4FF4807112481A
:1015F000FFF7AEFF0120FFF79DFE4FF400710E488C
:10160000FFF79BFF48B94FF480710B48FFF79EFF2F
:101610000120FFF78FFE012010BD4FF40071064836
:10162000FFF794FF4FF480710348FFF78FFF01200D
:10163000FFF780FE0020EFE7000C014008B5012114
:10164000082001F057FB4FF44070ADF80000032074
:101650008DF8020014208DF8030069460648FFF754
:101660008FFE4FF480710448FFF772FF4FF4007152
:101670000148FFF76DFF08BD000C014010B504469E
:1016800001F0C6FC54B14FF400711048FFF75EFF43
:101690004FF480710D48FFF75BFF09E04FF40071D4
:1016A0000A48FFF755FF4FF480710848FFF750FFD5
:1016B0000120FFF73FFE4FF480710448FFF746FF1B
:1016C0004FF400710148FFF741FF10BD000C0140CD
:1016D00070B501F087FC00251BE04FF480711348C2
:1016E000FFF734FF0120FFF725FE4FF480710F480C
:1016F000FFF72EFF6006040E4FF400710B48FFF752
:1017000013FF08B1601CC4B20120FFF713FE681C70
:10171000C5B2082DE1DB4FF480710448FFF716FFD6
:101720000120FFF707FE204670BD0000000C0140BD
:1017300070B5054600F092F8D02000F03DF8FFF7B4
:1017400051FF284600F038F8FFF74CFF00F086F80C
:10175000D12000F031F8FFF745FFFFF7B9FF040291
:101760000120FFF78BFFFFF7B3FF04430020FFF7D3
:1017700085FF00F093F820B270BD70B5044600F00C
:101780006DF8D02000F018F8FFF72CFF204600F08D
:1017900013F8FFF727FF00F061F8D12000F00CF8F4
:1017A000FFF720FFFFF794FF05460020FFF766FFD5
:1017B00000F074F8284670BD70B5044601F028FCAE
:1017C0004FF400711848FFF7C3FE002521E04FF4E5
:1017D00080711548FFF7BAFE04F08000802804D11C
:1017E00081001148FFF7B4FE04E04FF400710E4889
:1017F000FFF7ACFE0120FFF79DFD4FF480710A4812
:10180000FFF7A6FE0120FFF795FD6006040E681C99
:10181000C5B2082DDBDB4FF480710348FFF796FE5D
:101820000120FFF787FD70BD000C014070B5054633
:101830000C4600F013F8D020FFF7BEFFFFF7D2FEF2
:101840002846FFF7B9FFFFF7CDFE2046FFF7B4FFAC
:10185000FFF7C8FE00F022F870BD000010B501F0DF
:10186000D7FB4FF400710C48FFF772FE4FF4807104
:101870000948FFF76DFE0120FFF75CFD4FF4007192
:101880000548FFF763FE0120FFF754FD4FF4807118
:101890000148FFF75BFE10BD000C014010B501F0E0
:1018A000B7FB4FF480710A48FFF752FE4FF4007106
:1018B0000748FFF74BFE0120FFF73CFD4FF4007196
:1018C0000348FFF745FE0120FFF734FD10BD00007F
:1018D000000C014000B595B0FFF778FCFE48806928
:1018E0000690FD48806905900699FEF773FC089004
:1018F000F94840690490F848406903900499FEF75C
:1019000069FC0690F44800690490F348006903906C
:101910000499FEF75FFC05900699FEF703FC07901B
:101920000899FEF7FFFB0990FEF7C2FDCDE90A0119
:1019300003F04AFACDE90C01FEF7CDFD0E90E64822
:1019400000690D900E99FEF777FCE349086108469F
:1019500040690D900E99FEF76FFCDF49486108461B
:1019600080690D900E99FEF767FCDB498861084697
:1019700080680A900846006809900A99FEF72AFCD8
:101980000C90D548C0680A90D348406809900A99DD
:10199000FEF720FC0B900C99FEF716FC4FF08041EF
:1019A0000D90FEF717FC1490CB4840680A90CA4887
:1019B000006809900A99FEF70DFC0C90C648C068B3
:1019C0000A90C548806809900A99FEF703FC0B90BD
:1019D0000C99FEF7A7FB4FF080410D90FEF7FAFB44
:1019E0001390BD48C0680B90BB48C0680A900B9923
:1019F000FEF7F0FB0D90B84880680990B648806803
:101A000008900999FEF7E6FB0B90B34840680790F1
:101A1000B148406806900799FEF7DCFB0990AE4894
:101A200000680790AC48006806900799FEF7D2FB63
:101A300008900999FEF7C8FB0A900B99FEF7C4FBC2
:101A40000C900D99FEF76EFB1290A34880690B90E5
:101A50001399FEF7BFFB0D909F4840690B901299B8
:101A6000FEF7B8FB0C900D99FEF7AEFB11909A486B
:101A700000690B901299FEF7ADFB0D9096488069B6
:101A80000B901499FEF7A6FB0C900D99FEF79CFBAA
:101A90001090914840690B901499FEF79BFB0D90B4
:101AA0008D4800690B901399FEF794FB0C900D99EB
:101AB000FEF78AFB0F9089491198FEF78BFB0D907A
:101AC000874801680D98FEF72DFB8549086083491A
:101AD0001098FEF77FFB0D90824801680D98FEF785
:101AE00021FB804908607D490F98FEF773FB0D903C
:101AF0007D4801680D98FEF715FB7B4908607B481F
:101B00001199FEF767FB0C90754801680C98FEF779
:101B100009FB0D907048C06901460C900D98FEF7C6
:101B200001FB6D49C86171481099FEF753FB0C9099
:101B30006C4801680C98FEF7F5FA0D906648006A4B
:101B400001460C900D98FEF7EDFA6349086267486C
:101B50000F99FEF73FFB0C90634801680C98FEF765
:101B6000E1FA0D905C48406A01460C900D98FEF732
:101B7000D9FA594948620846406A09900846C0683F
:101B800008900999FEF726FB0B905348006A0790CE
:101B90005148806806900799FEF71CFB09904E4853
:101BA000406880F0004007904B48C06901460690AD
:101BB0000798FEF70FFB08900999FEF705FB0A90BE
:101BC0000B99FEF701FB4A490C90FEF703FB0D90C1
:101BD0004148006801460C900D98FEF7A3FA3E4973
:101BE00008600846006A09900846C068089009998C
:101BF000FEF7F0FA0B903848406A07903648806844
:101C000006900799FEF7E6FA09903348C0690790F5
:101C10003148006806900799FEF7DCFA08900999A8
:101C2000FEF780FA0A900B99FEF7CEFA30490C9035
:101C3000FEF7D0FA0D902848406801460C900D98A8
:101C4000FEF770FA244948600846C06909900846C2
:101C5000C06808900999FEF7BDFA0B901E48406ACB
:101C600007901D48406806900799FEF7B3FA09905F
:101C70001948006A07901848006806900799FEF70F
:101C8000A9FA08900999FEF79FFA0A900B99FEF7B6
:101C900049FA17490C90FEF79DFA0D900E4880689E
:101CA00001460C900D98FEF73DFA0B4988600846F6
:101CB000C06909900846806808900999FEF78AFA79
:101CC0000B900548006A0790034840680690079902
:101CD000FEF780FA09900DE0140000206F12033B1C
:101CE0005C00002060000020640000200000C8426A
:101CF0006F12833ACB48406A0790CA480068069042
:101D00000799FEF767FA08900999FEF70BFA0A900F
:101D10000B99FEF759FAC4490C90FEF75BFA0D9047
:101D2000C048C06801460C900D98FEF7FBF9BD490C
:101D3000C8600846C06806900846C06805900699C5
:101D4000FEF748FA0890B74880680490B548806864
:101D500003900499FEF73EFA0690B248406802905C
:101D6000B048406801900299FEF734FA0490AD48FB
:101D700000680290AB48006801900299FEF72AFAC9
:101D800003900499FEF7CEF905900699FEF7CAF97B
:101D900007900899FEF7C6F90990FEF789FBCDE98F
:101DA0000A0103F011F8CDE90C01FEF794FB0E9047
:101DB0009C4800680D900E99FEF73EFA994908601C
:101DC000084640680D900E99FEF736FA954948602E
:101DD000084680680D900E99FEF72EFA91498860AA
:101DE0000846C0680D900E99FEF726FA8D49C86026
:101DF0000846C068014600904FF08040FEF7EAF9BF
:101E000001908848C068014600900198FEF7E2F909
:101E1000039084488068014600904FF04040FEF7F0
:101E2000D9F901907F488068014600900198FEF73B
:101E3000D1F902900399FEF7C7F94FF07E51049053
:101E4000FEF770F90590FEF733FBCDE90801754800
:101E5000C06802907348006801900299FEF7BAF9D1
:101E6000049070484068014601904FF08040FEF7B2
:101E7000B1F902906B488068014601900298FEF724
:101E8000A9F903900499FEF74DF90590FEF710FBB0
:101E9000CDE90601DDE9082302F01AFE634A644B2E
:101EA000CDE90A01FEF706FACDE90C01FEF713FBB6
:101EB0005C49886308460068014603904FF0804003
:101EC000FEF788F90490574880680146039004980B
:101ED000FEF780F9069053484068014603904FF0A2
:101EE0004040FEF777F904904E48C06801460390E1
:101EF0000498FEF76FF905900699FEF713F907901D
:101F0000FEF7D6FACDE9080102F09AFB474A484BA2
:101F1000CDE90A01FEF7CEF9CDE90C01FEF7DBFAB7
:101F20004049486308468068014600904FF0804071
:101F3000FEF750F901903B488068014600900198F7
:101F4000FEF748F9039037484068014600904FF08B
:101F50004040FEF73FF9019032484068014600904A
:101F60000198FEF737F902900399FEF72DF94FF02B
:101F70007E510490FEF7D6F80590FEF799FACDE968
:101F8000080128480068014601904FF08040FEF7A4
:101F900021F9029023484068014601900298FEF71B
:101FA00019F904901F488068014601904FF0804065
:101FB000FEF710F902901B48C06801460190029894
:101FC000FEF708F903900499FEF7ACF80590FEF7C8
:101FD0006FFACDE90601DDE9082302F079FD134A25
:101FE000134BCDE90A01FEF765F9CDE90C01FEF7C7
:101FF00072FA0C49C8630846406B0D90FEF744FA2C
:102000000C4908800748C06B0D90FEF73DFA09495E
:1020100048800448806B0D90FEF736FA05498880A9
:1020200015B000BD140000206F12833ABC749318E1
:1020300004A64C405400002008B501211C2000F0EB
:1020400059FE48208DF803004FF46040ADF80000C1
:1020500069460D48FFF794F948208DF803004FF4C6
:102060000060ADF8000069460848FFF789F948208C
:102070008DF803004FF40040ADF8000069460448B5
:10208000FFF77EF908BD000000100140000C014080
:1020900000080140002136E01D4800681D4BD3F8C0
:1020A000383140EA43001B4BD3F8343140EA830017
:1020B000194BD3F83C3140EAC300184B1B6840EA87
:1020C0000310C840C2B212480068124BD3F838312E
:1020D00040EA43000F4BD3F8343140EA83000E4B03
:1020E000D3F83C3140EAC3000D4BD3F82C3140EA21
:1020F00003101F2805D002F0010010B9481CC0B21F
:102100007047481CC1B20529C6DB0020F8E7000073
:102110003C01224200002242000021422C81214247
:102120000080214218B900210D4A116017E00128F2
:1021300003D101210A4A116011E00A490988491CAA
:1021400089B2084A1180814209D1002111800449D5
:10215000096809B9012100E00021014A11607047B6
:10216000900121426E00002018B900210D4A116033
:1021700017E0012803D101210A4A116011E00A4940
:102180000988491C89B2084A1180814209D100217D
:1021900011800449096809B9012100E00021014AC0
:1021A00011607047940121427000002018B900218D
:1021B0000D4A116017E0012803D101210A4A11607C
:1021C00011E00A490988491C89B2084A11808142F4
:1021D00009D1002111800449096809B9012100E0F1
:1021E0000021014A116070479801214272000020CD
:1021F0000D48806940F004000B4988610B48006875
:102200000B49084009490860084600680949084325
:102210000649086005480C30006840F0700003492A
:102220000C310860704700000010024000080140B7
:10223000FFFF00F00000330310B54C20FEF750FD07
:102240004C222821382000F0ABFB002419E00E4876
:1022500030F814004FF4CD7190FBF1F00B490855A4
:10226000095D0B4A505CFEF73BFD0848005D084BDA
:102270001A5CE0003030C1B2382000F091FB601CE5
:10228000C4B2042CE3DB10BD740000208A000020DF
:102290007C00002070B5642500F0A4FA4C201D4994
:1022A00008704C222821382000F07AFB00241BE023
:1022B000194830F814004FF4CD7190FBF1F0174934
:1022C00008550846005D1649095C124A601C115405
:1022D0001248005D124B1A5CE0003030C1B2382069
:1022E00000F05EFB601CC4B2042CE1DB0CE009488A
:1022F00000F044FA202804D000250120FFF756FF03
:1023000002E00020FFF752FF281EA5F10101CDB227
:10231000EDD170BD92000020740000208E000020DE
:102320007C00002010B580216B20FFF77FFA4FF46E
:10233000FA70FEF7D9FF00216B20FFF777FA07212B
:102340001920FFF773FA06211A20FFF76FFA072109
:102350006820FFF76BFA18211B20FFF767FA0121AD
:102360001C20FFF763FA7520FFF707FA682803D1EE
:1023700007A001F069FC0AE00DA001F065FC7520E2
:10238000FFF7FBF90446214611A001F05DFC10BDEA
:102390004D50553630353020496E697469616C692D
:1023A0007A656420436F6D706C657465200D0A005A
:1023B0004D50553630353020496E697469616C690D
:1023C0007A6564204572726F72200D0A0000000069
:1023D00064726976657220696420697320252378A8
:1023E0000D0A000070B54D20FEF77AFC4D22282121
:1023F000382000F0D5FAFFF76DFA002447E02548B1
:1024000030F81400642190FBF1F004EB4401224AFF
:102410005054204830F81400642190FBF1F201FB85
:1024200012000A2190FBF1F004EB44011A4A114416
:102430004870184830F814000A2190FBF1F201FBB3
:10244000120004EB4401144A1144887000251AE07C
:1024500004EB4401104A1144495D104A505CFEF7F8
:102460003FFCE8003030182303FB0400C1B204EB4A
:102470004400094B1844405D084B1A5C382000F0BA
:102480008FFA681CC5B2032DE2DB601CC4B2032CBA
:10249000B5DB70BD54000020C00000207C0000208F
:1024A00070B5642600F09EF94D20364908704D2223
:1024B0002821382000F074FAFFF70CFA00244BE0D2
:1024C000314830F81400642190FBF1F004EB440132
:1024D0002E4A50542C4830F81400642190FBF1F23D
:1024E00001FB12000A2190FBF1F004EB4401274AA2
:1024F00011444870244830F814000A2190FBF1F28E
:1025000001FB120004EB4401204A114488700025AD
:102510001EE004EB44001D490844405D1C49095C71
:10252000032000FB0450401C164A1154E8003030D0
:10253000182303FB0400C1B204EB4400134B1844FE
:10254000405D134B1A5C382000F02AFA681CC5B2B3
:10255000032DDEDB601CC4B2032CB1DB0CE00948A8
:1025600000F00CF9202804D000260120FFF71EFE01
:1025700002E00020FFF71AFE301EA6F10101CEB2E4
:10258000EDD170BDD200002054000020C900002011
:102590007C00002000BFFEE7704700001CB54E2203
:1025A0002821084600F0FCF942222821382000F0BA
:1025B000F7F900F099F801A800F0C2F8A8B94E2088
:1025C0008DF800009DF804008DF8010000208DF8C2
:1025D00005009DF805008DF80200FF21272000F07E
:1025E00053F9FF21E22000F04FF901241BE01DF810
:1025F00004100E4A505CFEF773FB1DF804000B4BF1
:102600001A5CE0003030C1B2282000F0C9F91DF892
:102610000400064B1A5CE0003030C1B2382000F0F4
:10262000BFF9601CC4B2032CE1DB1CBD7C000020A0
:102630001CB511A103C9CDE90001082000F060FE1E
:1026400005226946302000F001F905226946102074
:1026500000F016F8002406E01DF80400A52800D0BC
:1026600003E0601CC4B2052CF6DB00BF052C01D0D2
:1026700001201CBD0020FCE7A5A5A5A5A500000024
:102680002DE9F04107460D46164600200A4908602C
:10269000384600F049FE8046002405E0FF2000F0A7
:1026A00043FE2855601CC4B2B442F7DB0120024946
:1026B00008604046BDE8F081B081214270B5044613
:1026C000002007490860204600F02EFEFF2000F0A1
:1026D0002BFE054601200349C1F8B001284670BD14
:1026E000B08121420080214210B5002011490860CC
:1026F000052211492A2000F0A9F80121212000F02B
:10270000C3F80121222000F0BFF82821252000F085
:10271000BBF82021312000F0B7F80F21262000F06F
:10272000B3F80F21202000F0AFF801200349C1F8D1
:10273000AC0110BDAC012142375A00080000214213
:1027400070B50446082000F0DBFD0720FFF7B6FF58
:1027500005462946272000F097F805F0400050B1C3
:10276000202221466120FFF78BFFFF21E22000F0AD
:102770008BF8002070BD0120FCE7000070B5054615
:10278000082000F0BDFD00201449086020222946E1
:10279000A02000F05BF801201149C1F8AC0100BF96
:1027A0000E488C3800680028FAD10720FFF786FF12
:1027B00004462146272000F067F804F0100028B1F5
:1027C000FF21E12000F060F8102070BD04F020002F
:1027D00008B12020F9E7FF20F7E70000AC01214213
:1027E0000000214210B50020144908600522144958
:1027F000302000F02BF8052212492A2000F026F89C
:102800000121212000F040F80121222000F03CF8B5
:102810000A21242000F038F82821252000F034F87F
:102820000F21262000F030F80E21202000F02CF897
:1028300001200549C1F8AC0110BD0000AC012142E6
:10284000325A0008375A0008000021422DE9F041B1
:1028500007460C46154600200A490860384600F035
:1028600063FD8046002605E014F8010B00F05CFDD6
:10287000701CC6B2AE42F7DB012002490860404638
:10288000BDE8F081B081214270B505460C460020BC
:1028900007490860284600F047FD0646204600F03C
:1028A00043FD01200349C1F8B001304670BD00006E
:1028B000B081214200802142F8B504460D461746FA
:1028C0001E46304600F046F88DF800708DF8014045
:1028D0008DF8025001208DF80300684600F002F8E0
:1028E000F8BD000070B5002100230F22C47804B3A6
:1028F000154C246804F4E064C4F5E064210AC1F1D5
:102900000403CA40447804FA03F184781440214354
:1029100009010E4C0678A155047804F01F05012426
:10292000AC4005786D11AD0005F1E025C5F800411A
:1029300009E0047804F01F050124AC40044D06783A
:10294000761145F8264070BD0CED00E000E400E093
:1029500080E100E002490143024A11607047000033
:102960000000FA050CED00E070B5032415E004F159
:10297000B001C8B200F060F8002000F05DF810204F
:1029800000F05AF8002504E0002000F088F8681CE8
:10299000C5B2802DF8DB601CC4B2082CE7DB70BD2B
:1029A0002DE9F04106460F461546A5F1200000F03E
:1029B000FF083946304600F003F9002409E008EB2F
:1029C0004801064A02EB4101085D00F068F8601C0E
:1029D000C4B2062CF3DBBDE8F0810000144E000801
:1029E0002DE9F047064688461746A7F1200000F07B
:1029F000FF094146304600F0E3F8002415E006EBFD
:102A0000C401C8B2414600F0DBF8002509E00949DD
:102A100001EB091105EBC402885C00F040F8681C6A
:102A2000C5B2082DF3DB601CC4B2022CE7DBBDE8A5
:102A3000F08700004250000810B5044600F03EFB4D
:102A4000782000F0B1FB00F0F9FA002000F0ACFBB8
:102A500000F0F4FA204600F0A7FB012000F010FB84
:102A600000F04AFB10BD70B5002415E004F1B00180
:102A7000C8B2FFF7E1FF0020FFF7DEFF1020FFF7ED
:102A8000DBFF002504E0002000F009F8681CC5B257
:102A9000802DF8DB601CC4B2082CE7DB70BD10B5DC
:102AA000044600F00BFB782000F07EFB00F0C6FA35
:102AB000402000F079FB00F0C1FA204600F074FBE2
:102AC000012000F0DDFA00F017FB10BD10B5C820A2
:102AD000FEF70AFCAE20FFF7AFFF2120FFF7ACFFA7
:102AE0000020FFF7A9FF7F20FFF7A6FF2220FFF7B6
:102AF000A3FF0020FFF7A0FF0720FFF79DFF202086
:102B0000FFF79AFF0020FFF797FF4020FFF794FFA1
:102B1000A120FFF791FFC820FFF78EFFD320FFF71A
:102B20008BFF0020FFF788FFDA20FFF785FF1020DA
:102B3000FFF782FFA820FFF77FFF3F20FFF77CFF12
:102B4000DB20FFF779FF3020FFF776FF8120FFF7CA
:102B500073FFFF20FFF770FFA420FFF76DFFA62093
:102B6000FFF76AFFFF20FFF767FF8D20FFF764FF85
:102B70001420FFF761FFAF20FFF75EFF10BD2DE9C6
:102B8000F041064600270021084600F019F800240D
:102B900012E000250CE0E106080E294600F010F8CE
:102BA00039467A1C97B2705CFFF779FF681CC5B292
:102BB000802DF0DB601CC4B2082CEADBBDE8F0819C
:102BC0002DE9F04105460C46402D08DB2846E91763
:102BD00005EB91618911A5EB8111CDB200E000BF39
:102BE000802C08DB2046E11704EB5161C911A4EBEE
:102BF000C111CCB200E000BF2046E11704EB117117
:102C00000911A4EB0111CEB2E11704EB1171C1F36C
:102C100007172846E91705EB5171C1F3C70808F1FA
:102C2000B001C8B2FFF708FF3046FFF705FF07F114
:102C30001001C8B2FFF700FFBDE8F0812DE9F041B7
:102C400007460E461546002431463846FFF7B8FFC2
:102C500009E02A5D062000FB0460C1B23846FFF798
:102C60009FFE601CC4B2285D0028F2D1BDE8F0814F
:102C70002DE9F04107460E461546002408E02A5D7E
:102C800006EBC400C1B23846FFF7AAFE601CC4B20E
:102C9000285D0028F3D1BDE8F0817047014600208F
:102CA000034A506820F440400843506070470000D9
:102CB0000010024029B1064A52690243044B5A618E
:102CC00004E0034A52698243014B5A617047000095
:102CD0000010024029B1064AD2690243044BDA616E
:102CE00004E0034AD2698243014BDA617047000075
:102CF0000010024029B1064A92690243044B9A61CE
:102D000004E0034A92698243014B9A6170470000D4
:102D10000010024010B500F029F84FF4803000F0A8
:102D2000E7F800F043F90446012C1ED1002000F022
:102D3000D3F8002000F002F9002000F00BF94FF466
:102D4000E011200400F018F9012000F00FF900BF95
:102D5000392000F09BF80028FAD0022000F01AF980
:102D600000BF00F0B1F80828FBD110BD0F48006883
:102D700040F001000D490860084640680C490840D1
:102D80000A494860084600680A490840074908603F
:102D90000846006820F4802008600846406820F457
:102DA000FE0048604FF41F0088607047001002402A
:102DB0000000FFF8FFFFF6FE30B5002100220024DE
:102DC00000232D4D6D6805F00C0121B1042905D0BB
:102DD000082923D105E0294D056022E0274D056033
:102DE0001FE0254D6D6805F47012234D6D6805F4E4
:102DF0008034022505EB92421CB9214D55430560F4
:102E00000BE01D4D6D6805F400351DB11C4D55439B
:102E1000056002E0194D5543056002E0174D05605D
:102E200000BF00BF144D6D6805F0F0010909154D94
:102E30006B5C0568DD4045600F4D6D6805F4E06131
:102E4000090A104D6B5C4568DD4085600A4D6D6870
:102E500005F46051C90A0B4D6B5C4568DD40C560E7
:102E6000054D6D6805F44041890B074D6B5CC568E5
:102E7000B5FBF3F5056130BD0010024000127A0089
:102E800000093D00A2000020B200002010B501465C
:102E90000022002300204A11012A02D1094C236894
:102EA00006E0022A02D1074C236A01E0054C636A5E
:102EB00001F01F02012494401C400CB1012000E0ED
:102EC000002010BD001002400248406800F00C00D5
:102ED000704700000010024001460020034A50687D
:102EE00020F0F000084350607047000000100240DE
:102EF0001149096821F480310F4A116011460968AF
:102F000021F480211160B0F5803F03D0B0F5802F0F
:102F10000ED106E00849096841F48031064A116083
:102F200007E00549096841F4A021034A116000E067
:102F300000BF00BF704700000010024001460020A3
:102F4000034A506820F4E060084350607047000076
:102F50000010024001460020034A506820F46050EF
:102F600040EAC10050607047001002400149086605
:102F7000704700000000424202460020044B58689F
:102F800020F47C1042EA01031843014B586070475B
:102F90000010024001460020034A506820F0030060
:102FA00008435060704700000010024038B5002010
:102FB00000900024002500BF3120FFF767FF054681
:102FC0000098401C00900098B0F5A06F01D0002D33
:102FD000F2D03120FFF75AFF08B1012400E00024AD
:102FE000204638BD08B501210820FFF783FE4FF4C5
:102FF0000070ADF8000003208DF8020004208DF869
:10300000030069460148FEF7BBF908BD000C01400A
:1030100008B501210820FFF76DFE4FF40070ADF8F0
:10302000000003208DF8020014208DF8030069468B
:103030000148FEF7A5F908BD000C014010B500F0ED
:1030400075F800F089F840210C48FEF77FFA8021DE
:103050000A48FEF772FA60B940210848FEF778FA8C
:103060000120FEF767F940210448FEF76FFA0020BF
:1030700010BD00F041F80120FAE70000000C01400B
:1030800010B5044600F052F800F078F824B9802119
:103090000948FEF75BFA03E080210748FEF758FA7B
:1030A00040210548FEF754FA0120FEF743F940217C
:1030B0000148FEF74BFA10BD000C014010B500F0BE
:1030C00035F800F05BF840210A48FEF741FA80210C
:1030D0000848FEF73DFA0520FEF72CF98021054847
:1030E000FEF734FA0520FEF725F940210148FEF7E6
:1030F0002DFA10BD000C014010B500F017F800F0DB
:103100003DF840210848FEF723FA80210648FEF7E3
:103110001DFA0520FEF70EF980210348FEF718FA84
:103120000520FEF707F910BD000C014008B501218C
:103130000820FFF7DFFD10208DF8030003208DF835
:1031400002004020ADF8000069460248FEF718F979
:1031500008BD0000000C014008B501210820FFF760
:10316000C9FD04208DF803008020ADF800006946F9
:103170000148FEF705F908BD000C014008B5012122
:103180000820FFF7B7FD14208DF8030003208DF809
:1031900002008020ADF8000069460248FEF7F0F812
:1031A00008BD0000000C014070B50446FFF7BEFFEB
:1031B000FFF7E4FF40211448FEF7C8F900251BE0A3
:1031C00040211148FEF7C2F904F08000802804D1A4
:1031D00080210D48FEF7BCF903E080210A48FEF784
:1031E000B5F90120FEF7A6F840210748FEF7B0F92F
:1031F0006006040E681CC5B2082DE1DB40210248C0
:10320000FEF7A4F970BD0000000C014000B587B0C6
:1032100001212920FFF76EFD01218803FFF75AFDE8
:1032200018208DF81B0003208DF81A004FF4604021
:10323000ADF8180006A92D48FEF7A2F84FF460413A
:103240002A48FEF785F928208DF81B004FF480707E
:10325000ADF8180006A92648FEF792F810208DF860
:103260001B0003208DF81A004FF40060ADF8180021
:1032700006A91F48FEF784F810208DF81B000320D4
:103280008DF81A004FF48050ADF8180006A91748C1
:10329000FEF776F80020ADF804004FF48270ADF828
:1032A00006000020ADF80800ADF80A00ADF80C00EB
:1032B0004FF40070ADF80E001820ADF8100000209B
:1032C000ADF812000720ADF8140001A9094800F07C
:1032D0006FF80121074800F051F800200649086006
:1032E00001200649C1F8B00107B000BD000C014043
:1032F0000008014000380040AC012142008021421A
:1033000010B50446074800884FF6C77108400549C4
:10331000088008460088204308800121014800F009
:103320002DF810BD0038004070B50546002405E0BA
:10333000601CC4B2C82C01DD002070BD02210E4803
:1033400000F028F80028F3D029460B4800F02EF8AA
:10335000002405E0601CC4B2C82C01DD0020ECE7AD
:103360000121054800F016F80028F3D0024800F0CB
:103370001AF8C0B2E1E700000038004021B102882D
:1033800042F04002028004E002884FF6BF731A4008
:10339000028070470246002013890B400BB10120C8
:1033A00000E000207047014688897047818170479E
:1033B00010B50022028802F441520B884C88234346
:1033C0008C882343CC8823430C8923434C89234393
:1033D0008C892343CC8923431A430280838B4FF289
:1033E000FF74234083830B8A038210BD704710B59E
:1033F00000F002F810BD00000CB500200190009014
:103400003348006840F480303149086000BF3048DC
:10341000006800F4003000900198401C0190009872
:1034200018B90198B0F5A06FF1D12948006800F4EF
:10343000003010B10120009001E0002000900098C1
:10344000012843D12348006840F01000214908605A
:103450000846006820F0030008600846006840F055
:10346000020008601A4840681949486008464068E8
:1034700048600846406840F48060486008464068FC
:1034800020F47C1048600846406840F4E81048602A
:103490000846006840F08070086000BF0C48006873
:1034A00000F000700028F9D00948406820F00300BF
:1034B000074948600846406840F00200486000BF85
:1034C0000348406800F00C000828F9D10CBD00004A
:1034D000001002400020024010B566480078C00984
:1034E00028B965A200210846FFF7C2FB0AE061483F
:1034F00000780121B1EBD01F04D164A2002108465D
:10350000FFF7B6FB66A200211020FFF797FB00F043
:10351000FFF83030C4B222460A211820FFF740FAE3
:1035200065A238211820FFF789FB5248007800F087
:10353000010018B14F480078C00918B15F48007801
:1035400001280AD15EA21E211820FFF777FB5DA299
:1035500050211820FFF772FB81E046480078C0F345
:10356000400018B143480078C00918B153480078AA
:1035700002280AD154A21E211820FFF75FFB51A296
:1035800050211820FFF75AFB69E03A480078C0F351
:10359000800018B137480078C00918B14748007852
:1035A00004280AD146A21E211820FFF747FB47A294
:1035B00050211820FFF742FB51E02E480078C0F35D
:1035C000C00018B12B480078C00918B13B480078FA
:1035D00008280AD13CA21E211820FFF72FFB3BA28E
:1035E00050211820FFF72AFB39E022480078C0F369
:1035F000001018B11F480078C00918B12F48007892
:1036000010280AD131A21E211820FFF717FB2DA286
:1036100050211820FFF712FB21E016480078C0F374
:10362000401018B113480078C00918B12348007839
:1036300020280AD123A21E211820FFF7FFFA23A277
:1036400050211820FFF7FAFA09E021A21E211820C4
:10365000FFF7F4FA1EA250211820FFF7EFFA1DA27F
:103660000A212020FFF704FB1BA20A213020FFF7CC
:10367000FFFA10BD860000202052454D4F54455F93
:10368000434F4E54524F4C20000000002020202079
:10369000202053455420202020202020000000001E
:1036A0003D3D5345543D3D3D3D3D43483D3D3D3D04
:1036B0003D4F4B3D3D0000002D2D3E008800002079
:1036C0004C455600424C45004D5055004E52460068
:1036D0006572720052783A0054783A0010B5FFF7DC
:1036E000C2F90A48FFF74BFAA720FFF7A5F94FF4F4
:1036F0007A70FDF7F9FDA620FFF79EF94FF47A7076
:10370000FDF7F2FDFFF7AFF910BD000032560008DB
:103710000A48006800F0410080000949D1F8101102
:1037200001F0010140EA41000449083909680843F1
:10373000044908700846007870470000148121424F
:10374000008021426800002008B501210820FFF711
:10375000D1FA01210648FDF79FFE28208DF80300CD
:103760003820ADF8000069460248FDF709FE08BDA3
:1037700000023000000C0140042808D14FF0E02185
:10378000096941F004014FF0E022116107E04FF0B8
:10379000E021096921F004014FF0E0221161704736
:1037A0007047000010B51348006840F0010011494F
:1037B000086008464068104908400E4948600846BD
:1037C00000680E4908400B4908600846006820F46C
:1037D000802008600846406820F4FE0048604FF4EE
:1037E0001F008860FFF703FE4FF000600449086087
:1037F00010BD0000001002400000FFF8FFFFF6FEC1
:1038000008ED00E00EB501210846FFF763FA40F22B
:10381000CF20ADF800000020ADF8020040F2CF70DC
:10382000ADF804000020ADF8060069464FF0804076
:1038300000F046F802231C2200210846FFF73CF85E
:1038400001221146900700F031F80121880700F0AD
:1038500018F80EBD10B50121880700F01EF848B118
:10386000FDF778FE04490870FDF702FB0121880787
:1038700000F004F810BD000087000020CA43028257
:10388000704721B1028842F00102028004E0028800
:103890004FF6FE731A400280704702460020138ADA
:1038A0000B400BB1012000E0002070471AB1838962
:1038B0000B43838102E083898B438381704700003F
:1038C000002202881D4B98420ED01D4B98420BD00F
:1038D000B0F1804F08D01B4B984205D01A4B98424C
:1038E00002D01A4B984204D14FF68F731A404B887E
:1038F0001A43174B984207D0164B984204D04FF604
:10390000FF431A40CB881A4302808B8883850B883B
:1039100003850A4B98420BD0094B984208D00E4BB6
:10392000984205D00D4B984202D00D4B984201D1E0
:103930000B7A03860123838270470000002C01402C
:10394000003401400004004000080040000C00402A
:1039500000100040001400400040014000440140BD
:103960000048014010B586B00446012144F204002D
:10397000FFF7C0F94FF40070ADF8140018208DF86F
:10398000170003208DF8160005A91F48FDF7F8FC65
:103990004FF48060ADF8140004208DF8170005A9DD
:1039A0001948FDF7EDFC01940020ADF80800ADF8D2
:1039B0000A00ADF80C000C20ADF80E000020ADF8A8
:1039C000100001A9114800F0C7F84FF4A060FEF7FD
:1039D000C1FF25208DF8000001208DF80100032093
:1039E0008DF8020001208DF803006846FEF77AFF8B
:1039F0000121064800F071F8012240F225510348E8
:103A000000F084F806B010BD000801400038014005
:103A10001D49098801F0200111B31B49091D0988BE
:103A2000C8B21A49098801F40041C9B9174909887F
:103A300001F4804161B10A2803D00021134A1180AA
:103A400020E01249098841F40041104A118019E030
:103A50000D2806D10D49098841F480410B4A118097
:103A600010E00A490988C1F30D01094A5054074979
:103A70000988491C054A118011460988C72901DDBA
:103A8000002111807047000000380140A000002094
:103A9000DC00002070B50646064C074DA8470749D4
:103AA000087008460078A0470448017804A000F098
:103AB000CBF870BDE10C0008BD0C00086C000020C4
:103AC00025640D0A0000000001F40072B2F5007FC9
:103AD00000D100BFCA430280704721B1828942F4FD
:103AE0000052828104E082894DF6FF731A40828180
:103AF000704702460020B1F5007F00D100BF138857
:103B00000B400BB1012000E000207047F0B50346E8
:103B1000002400260025002040F66A17B94200D193
:103B200000BF1846C1F3421401F01F06012707FA2F
:103B300006F5012C01D10C3004E0022C01D110302B
:103B400000E014301AB107682F43076002E00768ED
:103B5000AF430760F0BD00002DE9F04786B0054691
:103B60000E460024A24600BFA1460027B08900B13E
:103B700000BF2F462C8A4CF6FF700440F0880443A7
:103B80002C82AC894EF6F3100440B088318908438A
:103B9000718908430443AC81AC8A4FF6FF4004406E
:103BA000B0890443AC8201A8FFF706F91F48874299
:103BB00002D1DDF810A001E0DDF80CA0A88900F426
:103BC000004040B10AEBCA0000EB0A10316849001E
:103BD000B0FBF1F807E00AEBCA0000EB0A1031680D
:103BE0008900B0FBF1F86420B8FBF0F00401200973
:103BF000642101FB1089A88900F4004040B1322003
:103C000000EBC900B0FBF1F000F00700044308E04E
:103C1000322000EB09106421B0FBF1F000F00F003E
:103C200004432C8106B0BDE8F08700000038014055
:103C300001468888C0F308007047C1F308028280FB
:103C4000704700BFFEE700000FB4054B10B503A995
:103C5000044A029800F05CF910BC5DF814FB000007
:103C6000514C0008B8000020490050EAC12018BF9C
:103C700004204A0D18BF40F0010040F2FF72B2EB81
:103C8000515F08BF40F00200012808BF05207047BF
:103C90002DE9F0414F1E00EBC7010446D1E90001B8
:103CA00015461E4637F006020DD02A463346FCF76D
:103CB00001FB7F1E04EBC703D3E90023FCF702FDE1
:103CC00037F00602F1D1022F25D0042F13D0062F92
:103CD00018BFBDE8F0812A463346FCF7EBFAD4E979
:103CE0000A23FCF7EFFC2A463346FCF7E3FAD4E953
:103CF0000823FCF7E7FC2A463346FCF7DBFAD4E955
:103D00000623FCF7DFFC2A463346FCF7D3FAD4E956
:103D10000423FCF7D7FC2A463346FCF7CBFAD4E958
:103D20000223FCF7CFFC2A463346FCF7C3FAD4E95A
:103D30000023BDE8F041FCF7C5BC0122FCF769BDDA
:103D4000FCF7C0BC0022134610461146FCF724BB0A
:103D5000024A00201107FCF75CBD000001FDFFFFD7
:103D600002E008C8121F08C1002AFAD17047704744
:103D7000002001E001C1121F002AFBD170470000A2
:103D80000149086070470000BC0000202DE9FF5F7A
:103D900082B00021DDE90430020DDDF840B00343BC
:103DA00018D044F61050A2F2FF3242431514119875
:103DB00001281FD0A5EB0B00401C5FEA000A4FF062
:103DC00000064E4FDFF83891B046504615D5CAF17F
:103DD000000413E0119801244AA3012801D16FEADD
:103DE0000B010298119AC0E90031C0E9024206B005
:103DF000BDE8F09FCBF10000DFE704460021404A18
:103E0000491842EB0450CDE9001012E0E00707D05A
:103E100032463B4640464946FCF74CFA80468946C6
:103E200032463B4610461946FCF744FA06460F4612
:103E30006410002CEAD1DDE90401DDE90023BAF1C8
:103E4000000F06DAFCF736FA42464B46FCF732FA28
:103E500005E0FCF7A1FA42464B46FCF79DFA044602
:103E60000E460022284BFCF755FD03D84FF0FF30DB
:103E7000014607E00022254B20463146FCF722FC94
:103E8000FCF72FFD102409E0002C0ADB0A22002396
:103E9000FCF753FB039B30321A55641E50EA0102B3
:103EA000F2D1641C039AC4F111031444119A012A3B
:103EB00003D0012208430DD10AE0084304D00020BA
:103EC0004FF0110B119072E7A3EB0B056D1E0DE087
:103ED0005B4504DD4FF0000205F1010504E003DA63
:103EE0004FF00002A5F10105002AECD002981199CB
:103EF000C0E90231C0E9004579E700000000144044
:103F00000000F03F300000000000F0430000E03F00
:103F10002DE9FF4F95B09B468946064600250FE2E6
:103F2000252877D100242746F84A0121059400E08E
:103F3000044316F8013F203B01FA03F01042F7D189
:103F400030782A2811D06FF02F033078A0F130029A
:103F5000092A16D8059A44F0020402EB820203EB08
:103F600042021044761C0590EFE759F8042B0592A5
:103F7000002A03DA504244F40054059044F002044D
:103F8000761C30782E2816D116F8010F44F0040460
:103F90002A280DD06FF02F023078A0F13003092BC2
:103FA00009D807EB870302EB4303C718761CF3E736
:103FB00059F8047B761C30786C280FD006DC4C282E
:103FC00017D068280DD06A2814D104E0742810D0C6
:103FD0007A280FD10DE044F400140AE044F4801470
:103FE00001E044F440147278824202D104F5801456
:103FF000761C761C307866280BD013DC582877D0D6
:1040000009DC002875D04528F6D04628F4D047288A
:104010001AD19DE118E0632835D0642879D065284D
:1040200012D195E1702873D008DC6728F1D0692897
:104030006FD06E280DD06F2806D1B5E073282CD034
:10404000752875D0782874D05A46179990476D1CFA
:1040500075E1C4F30250022809D003280DD0D9F825
:10406000001004280DD00D6009F1040967E1D9F8AA
:104070000010EA17C1E90052F6E7D9F800100D80E8
:10408000F2E70D70F0E719F8041B8DF8001000201E
:104090008DF80100EA46012003E059F804AB4FF027
:1040A000FF3061074FF0000102D40DE008F101017B
:1040B0008846B9420FDA8045F8DB1AF80810002963
:1040C000F4D108E008F1010188468142FADB1AF8D0
:1040D00008100029F6D105985B46A0EB0807214699
:1040E0003846179A00F094FA284400EB080507E0D8
:1040F0004DE029E10DE01AF8010B5A461799904757
:10410000B8F10108F7D25B4621463846179A13E109
:1041100042E00A220092C4F302524FF0000A022A3F
:1041200008D059F804CB032A4FEAEC710AD00DE00D
:1041300029E02AE009F1070121F00702F2E802C1B3
:10414000914609E00FFA8CFC4FEAEC71042A03D186
:104150004FFA8CFC4FEAEC71002907DA0A4600217D
:10416000DCF1000C61EB02012D2202E0220504D5F6
:104170002B228DF80420012203E0E20701D0202247
:10418000F7E7904659E00A2102E010220DE01021E5
:104190004FF0000A00910BE010224FF0000A44F0AB
:1041A00004040827009203E008224FF0000A00925E
:1041B000C4F30252022A05D059F804CB0021032A85
:1041C00008D009E009F1070121F00702F2E802C175
:1041D000914605E01FFA8CFC042A01D10CF0FF0C7B
:1041E0004FF00008220728D5702806D0009B83F0E6
:1041F000100353EA0A0305D00EE040228DF8042094
:10420000012208E05CEA010206D030228DF8042089
:104210008DF8050002229046009B83F0080353EAC4
:104220000A030AD15CEA010201D1620705D53022F6
:104230008DF804204FF001087F1E582804D034A0C8
:1042400003900EA802900DE036A0F9E753466046B1
:10425000009AFCF772F984460398825C0298401E2B
:10426000029002705CEA0100F0D1029806A9081AD7
:1042700000F1200A600702D524F4803400E0012711
:10428000574502DDA7EB0A0000E0002000EB0A0121
:10429000009005984144401A0590E00306D45B461F
:1042A0002146179A059800F0B3F90544002706E067
:1042B00001A85A46C05D179990476D1C7F1C474561
:1042C000F6DBE0030CD55B462146179A059800F013
:1042D0009FF9054404E030205A46179990476D1C19
:1042E0000099481E00900029F5DC08E00298029928
:1042F0005A460078491C0291179990476D1CBAF1F3
:104300000001AAF1010AF1DC65E1000009280100C1
:10431000303132333435363738396162636465663B
:1043200000000000303132333435363738394142FD
:10433000434445460000000000F058F90544761C4F
:10434000307800287FF4ECAD19B02846BDE8F08F36
:10435000620700D4062709F1070222F0070CFCE8E7
:104360000223E14603F000485FEA080C02D00FF296
:10437000702C0DE05FEA045C02D50FF2682C07E0B8
:104380005FEAC47C02D00FF2602C01E0AFF2700C47
:104390004FF0FF3823F00043CDF850C065280CD013
:1043A00006DC452809D046281DD047283DD13DE0F0
:1043B000662818D067287ED138E00021112F01DB54
:1043C000112000E0781CCDE9000106A90EA8FFF736
:1043D000DDFCDDE90F010E9A03910021009207F147
:1043E000010A04914DE04FF000400097CDE9011023
:1043F00006A90EA8FFF7CAFCDDE90F0203920E9B87
:1044000011990022DDF80CA00093049211B9791CD7
:1044100000EB010AB7EB0A0004D4C0F1FF3007F14A
:10442000010A0490AAEB0700019044E0012F00DA92
:1044300001270021112F01DD112000E03846CDE9D0
:10444000000106A90EA8FFF7A1FCDDE90F010E9AF5
:104450000391002104910092BA4621070CD40399DC
:10446000514500DA8A46BAF1010F05DD009AAAF13A
:104470000101515C302908D0B84202DA10F1040F72
:1044800006DA0121CDE9011015E0AAF10101E9E701
:10449000002805DC049901440491AAEB000102E024
:1044A000411C514500DD8A460499401A401C019088
:1044B0004FF000400290200704D40198504501DBE2
:1044C000CDF8048000208DF84F0002980DF14F07C1
:1044D000B0F1004F25D02B200E9002984FF002082B
:1044E00000280CDA404202902D200E9007E00A21AD
:1044F0000298FCF70CF83031029007F8011DB8F172
:104500000001A8F10108F2DC02980028EFD1791E21
:104510000E980870307800F0200040F0450007F851
:10452000020D12A8C01B00F107081498007800B112
:10453000012000EB0A01019801EBE071059841446C
:10454000401A401E0590E00306D45B462146179AA8
:10455000059800F05DF805441498007818B15A46A3
:10456000179990476D1CE00324D55B462146179AA6
:10457000059800F04DF805441CE00498002807DB7E
:10458000DDE90301884203DD0098405C179901E0F2
:10459000179930205A469047049805F10105401CB0
:1045A00004900198401E019004D12E205A4617997C
:1045B00090476D1CBAF10001AAF1010ADDDC05E0AB
:1045C00017F8010B5A46179990476D1CB8F1000176
:1045D000A8F10108F4DC5B462146179A0598ABE682
:1045E0002D0000002B000000200000002DE9F0410C
:1045F000044600251E461746880404D405E03946C3
:104600002020B0476D1C641EF9D52846BDE8F08116
:104610002DE9F041044600251E469046C80301D509
:10462000302700E02027880404D505E041463846BD
:10463000B0476D1C641EF9D52846BDE8F081000026
:104640002DE9F04D8D4F21F0004A86B005460C460D
:10465000BA452ADBAAEB070028430AD088488245DE
:1046600001DC1AD1CDB106B02846BDE8F04DFFF708
:1046700064BB844A844B2846FBF71CFE07460E4663
:10468000824A834B28462146FBF714FE06B03A4681
:104690003346BDE8F04DFCF715B80120FFF770FB7D
:1046A00006B0BDE8F04DFFF74DBB7A48824542DACF
:1046B000BAF1795F0BDA2846FFF7D6FA042808BF6B
:1046C000FFF746FB284606B02146BDE8F08D2A4696
:1046D0000B461046FBF7EEFD834602466E480E463B
:1046E0000B4606217844FFF7D3FA5A463346FBF7C8
:1046F000E1FD804669488A465A463346042178449B
:10470000FFF7C6FA5A463346FBF7D4FD00223B4674
:10471000FBF7D8FF02460B4640465146FBF73CFEEE
:104720002A462346FBF7C6FD06B02A462346BDE8C7
:10473000F04DFBF7C7BF284624F0004100223D465C
:104740003B46FCF763F84FF0FF32FCF762F8064691
:10475000024653480F460B4606217844FFF798FA65
:1047600032463B46FBF7A6FDCDE900014D483246F7
:104770003B4604217844FFF78BFA32463B46FBF771
:1047800099FD00222B46FBF79DFF834602913046A0
:10479000394600F019FB804643480D46504517DC6A
:1047A000DDE900015A46029BFBF7F6FD42462B4627
:1047B000FBF780FD42462B46FBF784FF0122FCF706
:1047C00028F8304A304BFCF71EF8304A304B4CE0AA
:1047D0004FF0000A52460B464046FBF773FFCDE907
:1047E000031052462B4610461946FBF763FD32462E
:1047F0003B46FCF70BF8DDE90332FBF7CDFD06463F
:104800000F46DDE900015A46029BFBF7C5FD8346D2
:104810000091012230463946FBF7FBFF194A1A4B3B
:10482000FBF7F4FF06460F46012240462946FBF7F8
:10483000F0FF5A46009BFBF73DFD32463B46FBF737
:10484000E2FF06460F46012250462946FBF7E1FFEC
:104850000E4DDFF858802A464346FBF7D7FF324615
:104860003B46FBF7D3FF2A464346FBF7CFFF002C1E
:10487000D8BF81F0004106B0BDE8F08D0000F03FE8
:104880000000F07F075C143326A6913C182D445499
:10489000FB21F93F0000E03F581300006E130000B9
:1048A000E2120000F81200003333EF3FFB21E93F32
:1048B0002DE9F84F04460D4621F000400091734960
:1048C000814211DC7249884201DC06D12CB12046BC
:1048D0002946BDE8F84FFFF730BA6E48002DCCBF2F
:1048E0006D496E49BDE8F88F6D49814211DD6D4912
:1048F0008142D8BF4FF0FF366DDD20462946FFF7D5
:10490000B3F9042808BFFFF723FA20462946BDE87B
:10491000F88F6549654F25F00045814233DD6449D4
:10492000814219DD002632464FF080432046294659
:10493000FBF7C8FE80468A46012220462946FBF73F
:1049400068FF00223B46FBF75EFF42465346FBF7FB
:1049500023FD04460D463EE001260022BA463B46B2
:1049600020462946FBF7AEFE80460F4600225346FE
:1049700020462946FBF747FF42463B46FBF70CFD26
:1049800004460D4627E04B4981421BDDDFF828A194
:1049900002260022534620462946FBF78BFC0022C4
:1049A0003B46FBF78FFE80460F46002253462046CB
:1049B0002946FBF728FF42463B46FBF7EDFC044641
:1049C0000D4608E0032622462B4600203B49FBF714
:1049D000E3FC04460D4622462B4610461946FBF7DB
:1049E00069FC8B46824602460B46FBF763FC074692
:1049F0000246334888460B4606217844FFF748F9BB
:104A000052465B46FBF756FC82462E488B463A469A
:104A1000434605217844FFF73BF93A464346FBF706
:104A200049FC02460B46002E504659460CDAFBF76D
:104A300049FE22462B46FBF73DFC01B022462B46A1
:104A4000BDE8F04FFBF7E2BEFBF73CFE22462B46EB
:104A5000FBF730FC1C4A7A4402EBC603D3E900237F
:104A6000FBF7D1FE22462B46FBF7CDFE174A7A44D0
:104A700002EBC603D3E90023FBF7C8FE009A002A25
:104A8000B8BF81F00041BDE8F88F0000000010447D
:104A90000000F07F182D4454FB21F93FFB21F9BFA2
:104AA0000000DC3F0000203E0000F33F0000F03F2C
:104AB0000000E63F008003400000F83F0000F0BF28
:104AC000FA100000B8100000561000001E10000080
:104AD0002DE9F04D9446CCF1000423F000464CEA59
:104AE0000404524F46EAD4749A46884621F00042A4
:104AF000BC4206D8454240EA050442EAD474BC42AE
:104B000004D9BDE8F04D6246FFF71AB9AAF1405545
:104B1000A5F17F6555EA0C040BD0022404EAAA74BF
:104B2000434DDFF810E144EAD87452EA000B04D098
:104B30000CE0BDE8F04DFFF7BBBE002C14BF012C0C
:104B4000BDE8F08D022C30D0032C32D056EA0C0B8D
:104B50000AD0BE4220D1BA4209D126F0804622F0C6
:104B600080423346114617E000291ADB25E0DFF8C2
:104B7000C8B0FB44002C04BFDBE90001BDE8F08DA8
:104B8000012C02BFDBE9000181F00041BDE8F08D9E
:104B9000022C0AD0032C0CD0BA4212D1B8F1000F6B
:104BA0000BDA23482549BDE8F08D28462449BDE8A5
:104BB000F08D28467146BDE8F08D1D482149BDE8BD
:104BC000F08D921B12153C2AC4BF19481D490EDCFA
:104BD000BAF1000FBEBF12F13C0F0020014606DB08
:104BE0006246FBF7D9FB21F00041FFF761FE002C84
:104BF00008BFBDE8F08D012C04BF81F00041BDE885
:104C0000F08D114A114B022C07D0FBF7FCFD2A4610
:104C1000BDE8F04D0A4BFBF7F6BDFBF7F4FD2A4665
:104C2000BDE8F04D064BFBF7F1BD00000000F07F42
:104C3000182D4454FB2109C0B20F0000FB21F9BF1D
:104C4000FB210940FB21F93F075C143326A6A13C58
:104C500070B504460D46E1B20548FEF7EEFF00BF11
:104C600080210348FEF745FF0128F9D1204670BD99
:104C700000380140FEF74EF8FCF714FB4FF4E1302A
:104C8000FEF770FE4FF41650FBF758FF31214948EC
:104C9000FEF7D3FFFDF7ACFAFCF734F8FEF754FD4E
:104CA000FDF7CAF9FCF7CAFCFDF73CFBFEF7AEFACC
:104CB000FDF7BEFC18B90020FDF734FA02E0002031
:104CC000FDF774FAFCF73CF8FDF700FFFEF706FD70
:104CD000FEF798FD38A0FEF7B7FF69E0FEF7FCFB92
:104CE0003748007800F0010058B10220FDF71AFAA9
:104CF0000020FDF739FA0020FDF758FAFDF79CFA7D
:104D00004AE02F480078C0F3400058B10220FDF778
:104D100009FA0220FDF728FA0020FDF747FAFDF70F
:104D200061FB39E026480078C0F3800040B10020E4
:104D3000FDF7F8F90020FDF717FAFDF7ABFA2BE0C5
:104D40001F480078C0F3C00040B10020FDF7EAF929
:104D50000220FDF709FAFDF7A3FB1DE018480078D3
:104D6000C0F3001058B10220FDF7DCF90020FDF778
:104D7000FBF90220FDF71AFAFDF710FC0CE01048D1
:104D80000078C0F3401038B10220FDF7CBF90020C5
:104D9000FDF7EAF9FBF71CFF09480078C00938B9AC
:104DA00008480078012803D1FDF75DFEFDF78EFE6F
:104DB00094E7000000440040746573740D0A00001D
:104DC00086000020870000202DE9F04106460F46AE
:104DD000FBF736FD041E0D4618BF0120284320F0C6
:104DE0000040C0F17F6000F1E040C00F0ED0301CE9
:104DF00018BF0120384320F00040C0F17F6000F16F
:104E0000E040C00F04BF0120FEF7BAFF204629464C
:104E1000BDE8F0810000000000000000002F00004D
:104E200000000700070000147F147F1400242A7F6D
:104E30002A120062640813230036495522500000EC
:104E40000503000000001C224100000041221C005C
:104E50000014083E08140008083E0808000000A0DE
:104E600060000008080808080000606000000020DA
:104E700010080402003E5149453E0000427F4000B8
:104E8000004261514946002141454B31001814123E
:104E90007F10002745454539003C4A49493000010B
:104EA0007109050300364949493600064949291E5A
:104EB00000003636000000005636000000081422BC
:104EC00041001414141414140000412214080002A8
:104ED0000151090600324959513E007C1211127CE1
:104EE000007F49494936003E41414122007F41410E
:104EF000221C007F49494941007F09090901003E00
:104F00004149497A007F0808087F0000417F41003D
:104F1000002040413F01007F08142241007F4040B3
:104F20004040007F020C027F007F0408107F003E9B
:104F30004141413E007F09090906003E4151215E81
:104F4000007F091929460046494949310001017F7E
:104F50000101003F4040403F001F2040201F003F14
:104F60004038403F006314081463000708700807C6
:104F700000615149454300007F41410000552A55D9
:104F80002A55000041417F00000402010204004054
:104F90004040404000000102040000205454547876
:104FA000007F484444380038444444200038444496
:104FB000487F00385454541800087E090102001834
:104FC000A4A4A47C007F080404780000447D400071
:104FD000004080847D00007F102844000000417F55
:104FE0004000007C04180478007C08040478003831
:104FF0004444443800FC242424180018242418FCB9
:10500000007C0804040800485454542000043F4421
:105010004020003C4040207C001C2040201C003CE4
:105020004030403C004428102844001CA0A0A07C34
:10503000004464544C44000006090600141414147F
:105040001414000000000000000000000000000038
:105050000000000000F800000000000000333000F5
:10506000000000100C06100C0600000000000000FC
:10507000000040C07840C0784000043F04043F0472
:105080000400007088FC08300000001820FF211E7A
:105090000000F008F000E018000000211C031E21B1
:1050A0001E0000F00888700000001E21232419272C
:1050B000211010160E00000000000000000000008B
:1050C0000000000000E018040200000000071820A3
:1050D000400000020418E000000000402018070013
:1050E0000000404080F0804040000202010F0102B9
:1050F0000200000000F0000000000101011F01019A
:105100000100000000000000000080B070000000FE
:10511000000000000000000000000001010101018A
:10512000010100000000000000000030300000001D
:1051300000000000000080601804006018060100F4
:10514000000000E010080810E000000F1020201000
:105150000F00001010F8000000000020203F202069
:105160000000007008080888700000302824222100
:1051700030000030088888483000001820202011B6
:105180000E000000C02010F8000000070424243F97
:10519000240000F808888808080000192120201140
:1051A0000E0000E0108888180000000F1120201168
:1051B0000E0000380808C83808000000003F000052
:1051C00000000070880808887000001C222121223D
:1051D0001C0000E010080810E0000000312222113D
:1051E0000F00000000C0C0000000000000303000D0
:1051F000000000000080000000000000806000004F
:105200000000000080402010080000010204081087
:105210002000404040404040400004040404040496
:105220000400000810204080000000201008040244
:105230000100007048080808F00000000030360146
:105240000000C030C828E810E00007182724231405
:105250000B000000C038E0000000203C23020227C1
:10526000382008F8888888700000203F202020110E
:105270000E00C03008080808380007182020201049
:10528000080008F808080810E000203F202020103F
:105290000F0008F88888E8081000203F202023200D
:1052A000180008F88888E8081000203F2000030054
:1052B0000000C03008080838000007182020221E0F
:1052C000020008F808000008F808203F2101012129
:1052D0003F20000808F8080800000020203F202098
:1052E000000000000808F8080800C08080807F00E7
:1052F000000008F888C028180800203F2001263840
:10530000200008F8080000000000203F2020202096
:10531000300008F8F800F8F80800203F003F003F90
:10532000200008F830C00008F808203F20000718C7
:105330003F00E01008080810E0000F1020202010A7
:105340000F0008F808080808F000203F21010101BB
:105350000000E01008080810E0000F18242438505E
:105360004F0008F8888888887000203F2000030CD0
:1053700030200070880808083800003820212122D9
:105380001C00180808F8080818000000203F20003A
:10539000000008F808000008F808001F202020205E
:1053A0001F000878880000C83808000007380E0180
:1053B0000000F80800F80008F800033C0700073C6C
:1053C0000300081868808068180820302C03032C1C
:1053D00030200838C800C83808000000203F2000EE
:1053E000000010080808C8380800203826212020AE
:1053F0001800000000FE020202000000007F404092
:105400004000000C30C00000000000000001063821
:10541000C00000020202FE000000004040407F0089
:10542000000000000402020204000000000000006E
:10543000000000000000000000008080808080806C
:105440008080000202040000000000000000000054
:1054500000000000808080800000001924222222A9
:105460003F2008F8008080000000003F112020113C
:105470000E000000008080800000000E112020201F
:105480001100000000808088F800000E112020101C
:105490003F200000808080800000001F2222222206
:1054A0001300008080F0888888180020203F20208A
:1054B00000000000808080808000006B94949493B2
:1054C000600008F8008080800000203F210000205C
:1054D0003F2000809898000000000020203F2020FE
:1054E0000000000000809898000000C08080807F4D
:1054F000000008F8000080808000203F24022D304A
:105500002000000808F8000000000020203F2020B4
:1055100000008080808080808000203F20003F202D
:10552000003F8080008080800000203F210000201C
:105530003F200000808080800000001F202020206D
:105540001F00808000808000000080FFA1202011CB
:105550000E000000008080808000000E112020A03E
:10556000FF80808080008080800020203F212000FC
:1055700001000000808080808000003324242424E7
:105580001900008080E0808000000000001F2020C3
:1055900000008080000000808000001F202020107C
:1055A0003F20808080000080808000010E3008064F
:1055B000010080800080008080800F300C030C3060
:1055C0000F0000808000808080000020312E0E318E
:1055D0002000808080000080808080818E7018068E
:1055E000010000808080808080000021302C2221FA
:1055F000300000000000807C020200000000003F3C
:10560000404000000000FF00000000000000FF001C
:1056100000000002027C800000000040403F0000CB
:105620000000000601010202040400000000000066
:105630000000FF010101010101010101010101015E
:105640000101010101010101010101F1098909F1D2
:105650000101F1098909F10101011189493101793A
:1056600049498901B14949B101F10909F101F1093A
:1056700009F101F1494991017949498901F1090982
:10568000F1017949498901F1494991010101F9493A
:1056900049E9E9B9B9E9E94949F90101010101011A
:1056A00001010101010101010101010101010101EA
:1056B00001FFFF00000000000000000000000000EB
:1056C00000000000000000000000000182C263E34F
:1056D000E260B1D2DAEBEFEEE4F4FFFEFEFEF8F9A1
:1056E000FAFAF1F0F1F2F2E1C0C182020100010226
:1056F00002010001020201000102028180C1C2E236
:10570000E1F0F1D2D2D9D8D9DADAD9D8D8D8DBB207
:10571000B2A2A26343C2C2820203000000000000E2
:105720000000000000000000000000000000000079
:1057300000FFFF000000000000000000000000006B
:105740000000000000008080C0C040FE87F9FCFF20
:10575000FFFFFFFFFFFFFFFFFFFFFFFFFFFFFFFF59
:10576000FFFFFFFFFFFFFFFFFFFFFFFFFFFEFEFC4E
:10577000F8E08000000000E0F8FEFFFFFFFFFFFF01
:10578000FFFFFFFFFFFFFFFFFFFFFFFFFFFFFFFF29
:10579000FFFFFFFFFFFEFEFDFDFBF6FCF8F0E0C0A3
:1057A0008000000000000000000000000000000079
:1057B00000FFFF00000000000000000000000000EB
:1057C0000080F8FCB7E3F9FCFEFEFEFEFFFFFFFFE2
:1057D000FFFFFFFFFFFFFFFFFFFFFFFFFFFFFFFFD9
:1057E000FFFFFFFFFFFFFF7F3FFFFF7FF3C30307C5
:1057F000070F1F3E0000000107FF7F7F7FFFFFFFB5
:10580000FFFFFFFFFFFFFFFFFFFFFFFFFFFFFFFFA8
:10581000FFFFFFFFFFFFFFFFFFFFFFFFFFFFFFFF98
:10582000FFFEF8C0000000000000000000000000C3
:1058300000FFFF000000000000000000000000006A
:1058400000FFFFFCFFFFFFFFFFFFFFFFFFFFFFFF6A
:10585000FFFFFFFFFFFFFFFFFFFFFFFFFFFFFF0F48
:10586000037F7F1F0703C0C0F8F1C0C041071E3887
:1058700060C08000C0E03E1A0F071E7ED6DE9E9CF0
:1058800095BDEDC9797B63676F7F7FFFFFFFFFFFEA
:10589000FFFFFFFFFFFFFFFFFFFFFFFFFFFFFFFF18
:1058A000FFFFFFFF000000000000000000000000FC
:1058B00000FFFF00000000000000000000000000EA
:1058C00000000F07FFFFFFFFFFFFFFFFFFFFFFFFCE
:1058D000FFFFFFFFFF831B8999D1C1073FFFFFF83F
:1058E0008000000000000000000303000000000032
:1058F0000001FFFE070000000000000000000001A2
:105900000101000000000000000000FFFFFFFFFF9A
:10591000FFFFFFFFFFFFFFFFFFFFFFFFFFFFFFFF97
:10592000FFFFFF1F0000000000000000000000005B
:1059300000FFFF0000C020C020C00020E02000C009
:1059400020204000C0233F4F071F7FFFFFFFFFFFC6
:10595000FFFFFFFFFFFFFEFEFEFEFEC6000001038D
:105960000307060000000000000000008080C06007
:10597000381C07071E3860C0C0808000000000008F
:1059800000000000000080E0F0FCFFFFFFFFFFFFD1
:10599000FFFFFFFFFFFFFFFFFFFFFFFFFFFF7F3F57
:1059A000EF030000E000C02020C000E00000E000A5
:1059B00000FFFF80808F8087808F80888F88808421
:1059C0008989868084898986808080C0E0B1998DAC
:1059D0008783879FFFFFBF9F8F9FBFFFAFD6AAD64A
:1059E000AAD6AAD6AAD6AAD6AAFE83838180808008
:1059F0008080808080808080808181838382868493
:105A00008C8CE8F8FEFFFFFFFFFFFFFFFFFFFFFFAB
:105A1000BFBFBF9F9FBFEFDFFFE7C3838180808051
:105A200080818E818080878888878087888887802A
:105A300080FF3443101001344310100100000000B7
:105A4000555555555555C53F7D6FEB0312D6D4BFFF
:105A50005544880E55C1C93F3B8F68B52882A4BF05
:105A600088B20175E0EF493F09F7FD0DE13D023FC6
:105A70004B2D8A1C273A03C0C88A599CE52A00404E
:105A800059018D1B6C06E6BF82922EB1C5B8B33F9B
:105A90004FBB610567ACDD3F182D4454FB21E93F46
:105AA0009BF681D20B73EF3F182D4454FB21F93F35
:105AB000E2652F227F2B7A3C075C143326A6813CBB
:105AC000BDCBF07A8807703C075C143326A6913C66
:105AD000C4EB98999999C9BF711623FEC671BCBFD2
